{
  "_format": "hh-sol-artifact-1",
  "contractName": "SCA",
  "sourceName": "contracts/SCA.sol",
  "abi": [
    {
      "inputs": [],
      "stateMutability": "nonpayable",
      "type": "constructor"
    },
    {
      "inputs": [
        {
          "internalType": "string",
          "name": "Cid",
          "type": "string"
        }
      ],
      "name": "addcid",
      "outputs": [],
      "stateMutability": "payable",
      "type": "function"
    },
    {
      "inputs": [],
      "name": "cid_count",
      "outputs": [
        {
          "internalType": "uint256",
          "name": "",
          "type": "uint256"
        }
      ],
      "stateMutability": "view",
      "type": "function"
    },
    {
      "inputs": [
        {
          "internalType": "address",
          "name": "user",
          "type": "address"
        }
      ],
      "name": "getRole",
      "outputs": [
        {
          "internalType": "string",
          "name": "",
          "type": "string"
        }
      ],
      "stateMutability": "view",
      "type": "function"
    },
    {
      "inputs": [
        {
          "internalType": "address payable",
          "name": "Carrier",
          "type": "address"
        }
      ],
      "name": "register",
      "outputs": [],
      "stateMutability": "nonpayable",
      "type": "function"
    },
    {
      "inputs": [
        {
          "internalType": "string",
          "name": "Cid",
          "type": "string"
        },
        {
          "internalType": "string",
          "name": "cidverify",
          "type": "string"
        }
      ],
      "name": "show",
      "outputs": [
        {
          "internalType": "bool",
          "name": "",
          "type": "bool"
        }
      ],
      "stateMutability": "view",
      "type": "function"
    },
    {
      "inputs": [
        {
          "internalType": "address",
          "name": "carrier",
          "type": "address"
        }
      ],
      "name": "showcarrier",
      "outputs": [
        {
          "internalType": "bool",
          "name": "",
          "type": "bool"
        }
      ],
      "stateMutability": "view",
      "type": "function"
    },
    {
      "inputs": [
        {
          "internalType": "uint256",
          "name": "id",
          "type": "uint256"
        }
      ],
      "name": "showcert",
      "outputs": [
        {
          "components": [
            {
              "internalType": "string",
              "name": "hashedcid",
              "type": "string"
            },
            {
              "internalType": "uint256",
              "name": "regcid",
              "type": "uint256"
            }
          ],
          "internalType": "struct SCA.Cert",
          "name": "",
          "type": "tuple"
        }
      ],
      "stateMutability": "view",
      "type": "function"
    },
    {
      "inputs": [
        {
          "internalType": "uint256",
          "name": "id",
          "type": "uint256"
        }
      ],
      "name": "showcid",
      "outputs": [
        {
          "internalType": "string",
          "name": "",
          "type": "string"
        }
      ],
      "stateMutability": "view",
      "type": "function"
    },
    {
      "inputs": [
        {
          "internalType": "uint256",
          "name": "id",
          "type": "uint256"
        }
      ],
      "name": "showdeliv",
      "outputs": [
        {
          "internalType": "address",
          "name": "",
          "type": "address"
        }
      ],
      "stateMutability": "view",
      "type": "function"
    },
    {
      "inputs": [],
      "name": "supplier",
      "outputs": [
        {
          "internalType": "address",
          "name": "",
          "type": "address"
        }
      ],
      "stateMutability": "view",
      "type": "function"
    },
    {
      "inputs": [
        {
          "internalType": "string",
          "name": "Hashcid",
          "type": "string"
        },
        {
          "internalType": "string",
          "name": "Cid",
          "type": "string"
        },
        {
          "internalType": "address",
          "name": "_carrier",
          "type": "address"
        }
      ],
      "name": "supply",
      "outputs": [],
      "stateMutability": "payable",
      "type": "function"
    },
    {
      "inputs": [
        {
          "internalType": "address payable",
          "name": "Carrier",
          "type": "address"
        }
      ],
      "name": "unregister",
      "outputs": [],
      "stateMutability": "nonpayable",
      "type": "function"
    }
  ],
  "bytecode": "0x608060405234801561001057600080fd5b50600080546001600160a01b03191633179055610cb4806100326000396000f3fe6080604052600436106100a75760003560e01c80634420e486116100645780634420e486146101a857806344276733146101c85780637e7b0d00146101f5578063d1b930f014610222578063eedb8ce71461025b578063fe3434601461027b57600080fd5b806314f9e5c4146100ac5780632b9df719146100d55780632ec2c2461461010557806336da4468146101275780633d1d94e81461015f578063415c53ce14610172575b600080fd5b3480156100b857600080fd5b506100c260015481565b6040519081526020015b60405180910390f35b3480156100e157600080fd5b506100f56100f0366004610956565b61028e565b60405190151581526020016100cc565b34801561011157600080fd5b506101256101203660046109d2565b610302565b005b34801561013357600080fd5b50600054610147906001600160a01b031681565b6040516001600160a01b0390911681526020016100cc565b61012561016d3660046109f6565b610333565b34801561017e57600080fd5b5061014761018d366004610a33565b6000908152600560205260409020546001600160a01b031690565b3480156101b457600080fd5b506101256101c33660046109d2565b6103cc565b3480156101d457600080fd5b506101e86101e33660046109d2565b610400565b6040516100cc9190610aa8565b34801561020157600080fd5b50610215610210366004610a33565b610491565b6040516100cc9190610abb565b34801561022e57600080fd5b506100f561023d3660046109d2565b6001600160a01b031660009081526002602052604090205460011490565b34801561026757600080fd5b506101e8610276366004610a33565b61060c565b610125610289366004610aed565b6106ae565b60006003836040516102a09190610b65565b908152604051602091819003820181206102bc92909101610bbc565b60405160208183030381529060405280519060200120826040516020016102e39190610b65565b6040516020818303038152906040528051906020012014905092915050565b6000546001600160a01b0316331461031957600080fd5b6001600160a01b0316600090815260026020526040812055565b6000546001600160a01b0316331461034a57600080fd5b6040805160608101825260008183019081528152600160208201529051600390610375908490610b65565b9081526020016040518091039020600082015181600001908051906020019061039f92919061081a565b50602091820151600191820155546000908152600482526040902082516103c89284019061081a565b5050565b6000546001600160a01b031633146103e357600080fd5b6001600160a01b0316600090815260026020526040902060019055565b6000546060906001600160a01b03838116911614156104365750506040805180820190915260018152600360fc1b602082015290565b6001600160a01b038216600090815260026020526040902054600114156104745750506040805180820190915260018152603160f81b602082015290565b50506040805180820190915260018152601960f91b602082015290565b604080518082019091526060815260006020820152600082815260046020526040812080546104bf90610b81565b80601f01602080910402602001604051908101604052809291908181526020018280546104eb90610b81565b80156105385780601f1061050d57610100808354040283529160200191610538565b820191906000526020600020905b81548152906001019060200180831161051b57829003601f168201915b5050505050905060038160405161054f9190610b65565b908152602001604051809103902060405180604001604052908160008201805461057890610b81565b80601f01602080910402602001604051908101604052809291908181526020018280546105a490610b81565b80156105f15780601f106105c6576101008083540402835291602001916105f1565b820191906000526020600020905b8154815290600101906020018083116105d457829003601f168201915b50505050508152602001600182015481525050915050919050565b600081815260046020526040902080546060919061062990610b81565b80601f016020809104026020016040519081016040528092919081815260200182805461065590610b81565b80156106a25780601f10610677576101008083540402835291602001916106a2565b820191906000526020600020905b81548152906001019060200180831161068557829003601f168201915b50505050509050919050565b336000908152600260205260409020546001146106ca57600080fd5b6003826040516106da9190610b65565b90815260200160405180910390206001015460011461072b5760405162461bcd60e51b815260206004820152600860248201526739bab8383634b2b960c11b60448201526064015b60405180910390fd5b6001600160a01b0381166000908152600260205260409020546001146107805760405162461bcd60e51b815260206004820152600a6024820152691c9959da5cdd195c995960b21b6044820152606401610722565b604051806040016040528084815260200160018152506003836040516107a69190610b65565b908152602001604051809103902060008201518160000190805190602001906107d092919061081a565b50602091820151600191820155805460009081526005909252604090912080546001600160a01b0319166001600160a01b038416179055805461081291610c58565b600155505050565b82805461082690610b81565b90600052602060002090601f016020900481019282610848576000855561088e565b82601f1061086157805160ff191683800117855561088e565b8280016001018555821561088e579182015b8281111561088e578251825591602001919060010190610873565b5061089a92915061089e565b5090565b5b8082111561089a576000815560010161089f565b634e487b7160e01b600052604160045260246000fd5b600082601f8301126108da57600080fd5b813567ffffffffffffffff808211156108f5576108f56108b3565b604051601f8301601f19908116603f0116810190828211818310171561091d5761091d6108b3565b8160405283815286602085880101111561093657600080fd5b836020870160208301376000602085830101528094505050505092915050565b6000806040838503121561096957600080fd5b823567ffffffffffffffff8082111561098157600080fd5b61098d868387016108c9565b935060208501359150808211156109a357600080fd5b506109b0858286016108c9565b9150509250929050565b6001600160a01b03811681146109cf57600080fd5b50565b6000602082840312156109e457600080fd5b81356109ef816109ba565b9392505050565b600060208284031215610a0857600080fd5b813567ffffffffffffffff811115610a1f57600080fd5b610a2b848285016108c9565b949350505050565b600060208284031215610a4557600080fd5b5035919050565b60005b83811015610a67578181015183820152602001610a4f565b83811115610a76576000848401525b50505050565b60008151808452610a94816020860160208601610a4c565b601f01601f19169290920160200192915050565b6020815260006109ef6020830184610a7c565b602081526000825160406020840152610ad76060840182610a7c565b9050602084015160408401528091505092915050565b600080600060608486031215610b0257600080fd5b833567ffffffffffffffff80821115610b1a57600080fd5b610b26878388016108c9565b94506020860135915080821115610b3c57600080fd5b50610b49868287016108c9565b9250506040840135610b5a816109ba565b809150509250925092565b60008251610b77818460208701610a4c565b9190910192915050565b600181811c90821680610b9557607f821691505b60208210811415610bb657634e487b7160e01b600052602260045260246000fd5b50919050565b600080835481600182811c915080831680610bd857607f831692505b6020808410821415610bf857634e487b7160e01b86526022600452602486fd5b818015610c0c5760018114610c1d57610c4a565b60ff19861689528489019650610c4a565b60008a81526020902060005b86811015610c425781548b820152908501908301610c29565b505084890196505b509498975050505050505050565b60008219821115610c7957634e487b7160e01b600052601160045260246000fd5b50019056fea26469706673582212208a69899c399d22a2c2a32e10babdee2efdd51b8eead7d109c81e037fe9c567b064736f6c63430008090033",
  "linkReferences": {},
  "deployedLinkReferences": {}
}