{
  "_format": "hh-sol-artifact-1",
  "contractName": "SCA",
  "sourceName": "contracts/SCA.sol",
  "abi": [
    {
      "inputs": [],
      "stateMutability": "nonpayable",
      "type": "constructor"
    },
    {
      "inputs": [
        {
          "internalType": "string",
          "name": "Cid",
          "type": "string"
        }
      ],
      "name": "addcid",
      "outputs": [],
      "stateMutability": "payable",
      "type": "function"
    },
    {
      "inputs": [],
      "name": "cid_count",
      "outputs": [
        {
          "internalType": "uint256",
          "name": "",
          "type": "uint256"
        }
      ],
      "stateMutability": "view",
      "type": "function"
    },
    {
      "inputs": [
        {
          "internalType": "address",
          "name": "user",
          "type": "address"
        }
      ],
      "name": "getRole",
      "outputs": [
        {
          "internalType": "string",
          "name": "",
          "type": "string"
        }
      ],
      "stateMutability": "view",
      "type": "function"
    },
    {
      "inputs": [
        {
          "internalType": "address payable",
          "name": "Carrier",
          "type": "address"
        }
      ],
      "name": "register",
      "outputs": [],
      "stateMutability": "nonpayable",
      "type": "function"
    },
    {
      "inputs": [
        {
          "internalType": "string",
          "name": "Cid",
          "type": "string"
        },
        {
          "internalType": "string",
          "name": "cidverify",
          "type": "string"
        }
      ],
      "name": "show",
      "outputs": [
        {
          "internalType": "bool",
          "name": "",
          "type": "bool"
        }
      ],
      "stateMutability": "view",
      "type": "function"
    },
    {
      "inputs": [
        {
          "internalType": "address",
          "name": "carrier",
          "type": "address"
        }
      ],
      "name": "showcarrier",
      "outputs": [
        {
          "internalType": "bool",
          "name": "",
          "type": "bool"
        }
      ],
      "stateMutability": "view",
      "type": "function"
    },
    {
      "inputs": [
        {
          "internalType": "uint256",
          "name": "id",
          "type": "uint256"
        }
      ],
      "name": "showcert",
      "outputs": [
        {
          "components": [
            {
              "internalType": "string",
              "name": "hashedcid",
              "type": "string"
            },
            {
              "internalType": "uint256",
              "name": "regcid",
              "type": "uint256"
            }
          ],
          "internalType": "struct SCA.Cert",
          "name": "",
          "type": "tuple"
        }
      ],
      "stateMutability": "view",
      "type": "function"
    },
    {
      "inputs": [
        {
          "internalType": "uint256",
          "name": "id",
          "type": "uint256"
        }
      ],
      "name": "showcid",
      "outputs": [
        {
          "internalType": "string",
          "name": "",
          "type": "string"
        }
      ],
      "stateMutability": "view",
      "type": "function"
    },
    {
      "inputs": [
        {
          "internalType": "uint256",
          "name": "id",
          "type": "uint256"
        }
      ],
      "name": "showdeliv",
      "outputs": [
        {
          "internalType": "address",
          "name": "",
          "type": "address"
        }
      ],
      "stateMutability": "view",
      "type": "function"
    },
    {
      "inputs": [],
      "name": "supplier",
      "outputs": [
        {
          "internalType": "address",
          "name": "",
          "type": "address"
        }
      ],
      "stateMutability": "view",
      "type": "function"
    },
    {
      "inputs": [
        {
          "internalType": "string",
          "name": "Hashcid",
          "type": "string"
        },
        {
          "internalType": "string",
          "name": "Cid",
          "type": "string"
        },
        {
          "internalType": "address",
          "name": "_carrier",
          "type": "address"
        }
      ],
      "name": "supply",
      "outputs": [],
      "stateMutability": "payable",
      "type": "function"
    },
    {
      "inputs": [
        {
          "internalType": "address payable",
          "name": "Carrier",
          "type": "address"
        }
      ],
      "name": "unregister",
      "outputs": [],
      "stateMutability": "nonpayable",
      "type": "function"
    }
  ],
  "bytecode": "0x608060405234801561001057600080fd5b50336000806101000a81548173ffffffffffffffffffffffffffffffffffffffff021916908373ffffffffffffffffffffffffffffffffffffffff16021790555061155f806100606000396000f3fe6080604052600436106100a75760003560e01c80634420e486116100645780634420e486146101c157806344276733146101ea5780637e7b0d0014610227578063d1b930f014610264578063eedb8ce7146102a1578063fe343460146102de576100a7565b806314f9e5c4146100ac5780632b9df719146100d75780632ec2c2461461011457806336da44681461013d5780633d1d94e814610168578063415c53ce14610184575b600080fd5b3480156100b857600080fd5b506100c16102fa565b6040516100ce9190610c9b565b60405180910390f35b3480156100e357600080fd5b506100fe60048036038101906100f99190610e10565b610300565b60405161010b9190610ea3565b60405180910390f35b34801561012057600080fd5b5061013b60048036038101906101369190610f1c565b610379565b005b34801561014957600080fd5b50610152610419565b60405161015f9190610f6a565b60405180910390f35b610182600480360381019061017d9190610f85565b61043d565b005b34801561019057600080fd5b506101ab60048036038101906101a69190610ffa565b61052f565b6040516101b89190610f6a565b60405180910390f35b3480156101cd57600080fd5b506101e860048036038101906101e39190610f1c565b61056c565b005b3480156101f657600080fd5b50610211600480360381019061020c9190611053565b61060c565b60405161021e9190611108565b60405180910390f35b34801561023357600080fd5b5061024e60048036038101906102499190610ffa565b610762565b60405161025b91906111c0565b60405180910390f35b34801561027057600080fd5b5061028b60048036038101906102869190611053565b6108d7565b6040516102989190610ea3565b60405180910390f35b3480156102ad57600080fd5b506102c860048036038101906102c39190610ffa565b610923565b6040516102d59190611108565b60405180910390f35b6102f860048036038101906102f391906111e2565b6109c8565b005b60015481565b600060038360405161031291906112a9565b908152602001604051809103902060000160405160200161033391906113b5565b604051602081830303815290604052805190602001208260405160200161035a91906112a9565b6040516020818303038152906040528051906020012014905092915050565b60008054906101000a900473ffffffffffffffffffffffffffffffffffffffff1673ffffffffffffffffffffffffffffffffffffffff163373ffffffffffffffffffffffffffffffffffffffff16146103d157600080fd5b6000600260008373ffffffffffffffffffffffffffffffffffffffff1673ffffffffffffffffffffffffffffffffffffffff1681526020019081526020016000208190555050565b60008054906101000a900473ffffffffffffffffffffffffffffffffffffffff1681565b60008054906101000a900473ffffffffffffffffffffffffffffffffffffffff1673ffffffffffffffffffffffffffffffffffffffff163373ffffffffffffffffffffffffffffffffffffffff161461049557600080fd5b604051806040016040528060405180602001604052806000815250815260200160018152506003826040516104ca91906112a9565b908152602001604051809103902060008201518160000190805190602001906104f4929190610bc5565b506020820151816001015590505080600460006001548152602001908152602001600020908051906020019061052b929190610bc5565b5050565b60006005600083815260200190815260200160002060009054906101000a900473ffffffffffffffffffffffffffffffffffffffff169050919050565b60008054906101000a900473ffffffffffffffffffffffffffffffffffffffff1673ffffffffffffffffffffffffffffffffffffffff163373ffffffffffffffffffffffffffffffffffffffff16146105c457600080fd5b6001600260008373ffffffffffffffffffffffffffffffffffffffff1673ffffffffffffffffffffffffffffffffffffffff1681526020019081526020016000208190555050565b606060008054906101000a900473ffffffffffffffffffffffffffffffffffffffff1673ffffffffffffffffffffffffffffffffffffffff168273ffffffffffffffffffffffffffffffffffffffff16141561069f576040518060400160405280600181526020017f3000000000000000000000000000000000000000000000000000000000000000815250905061075d565b6001600260008473ffffffffffffffffffffffffffffffffffffffff1673ffffffffffffffffffffffffffffffffffffffff168152602001908152602001600020541415610724576040518060400160405280600181526020017f3100000000000000000000000000000000000000000000000000000000000000815250905061075d565b6040518060400160405280600181526020017f320000000000000000000000000000000000000000000000000000000000000081525090505b919050565b61076a610c4b565b600060046000848152602001908152602001600020805461078a906112ef565b80601f01602080910402602001604051908101604052809291908181526020018280546107b6906112ef565b80156108035780601f106107d857610100808354040283529160200191610803565b820191906000526020600020905b8154815290600101906020018083116107e657829003601f168201915b5050505050905060038160405161081a91906112a9565b9081526020016040518091039020604051806040016040529081600082018054610843906112ef565b80601f016020809104026020016040519081016040528092919081815260200182805461086f906112ef565b80156108bc5780601f10610891576101008083540402835291602001916108bc565b820191906000526020600020905b81548152906001019060200180831161089f57829003601f168201915b50505050508152602001600182015481525050915050919050565b60006001600260008473ffffffffffffffffffffffffffffffffffffffff1673ffffffffffffffffffffffffffffffffffffffff16815260200190815260200160002054149050919050565b6060600460008381526020019081526020016000208054610943906112ef565b80601f016020809104026020016040519081016040528092919081815260200182805461096f906112ef565b80156109bc5780601f10610991576101008083540402835291602001916109bc565b820191906000526020600020905b81548152906001019060200180831161099f57829003601f168201915b50505050509050919050565b6001600260003373ffffffffffffffffffffffffffffffffffffffff1673ffffffffffffffffffffffffffffffffffffffff1681526020019081526020016000205414610a1457600080fd5b6001600383604051610a2691906112a9565b90815260200160405180910390206001015414610a78576040517f08c379a0000000000000000000000000000000000000000000000000000000008152600401610a6f90611418565b60405180910390fd5b6001600260008373ffffffffffffffffffffffffffffffffffffffff1673ffffffffffffffffffffffffffffffffffffffff1681526020019081526020016000205414610afa576040517f08c379a0000000000000000000000000000000000000000000000000000000008152600401610af190611484565b60405180910390fd5b60405180604001604052808481526020016001815250600383604051610b2091906112a9565b90815260200160405180910390206000820151816000019080519060200190610b4a929190610bc5565b50602082015181600101559050508060056000600154815260200190815260200160002060006101000a81548173ffffffffffffffffffffffffffffffffffffffff021916908373ffffffffffffffffffffffffffffffffffffffff16021790555060018054610bba91906114d3565b600181905550505050565b828054610bd1906112ef565b90600052602060002090601f016020900481019282610bf35760008555610c3a565b82601f10610c0c57805160ff1916838001178555610c3a565b82800160010185558215610c3a579182015b82811115610c39578251825591602001919060010190610c1e565b5b509050610c479190610c65565b5090565b604051806040016040528060608152602001600081525090565b5b80821115610c7e576000816000905550600101610c66565b5090565b6000819050919050565b610c9581610c82565b82525050565b6000602082019050610cb06000830184610c8c565b92915050565b6000604051905090565b600080fd5b600080fd5b600080fd5b600080fd5b6000601f19601f8301169050919050565b7f4e487b7100000000000000000000000000000000000000000000000000000000600052604160045260246000fd5b610d1d82610cd4565b810181811067ffffffffffffffff82111715610d3c57610d3b610ce5565b5b80604052505050565b6000610d4f610cb6565b9050610d5b8282610d14565b919050565b600067ffffffffffffffff821115610d7b57610d7a610ce5565b5b610d8482610cd4565b9050602081019050919050565b82818337600083830152505050565b6000610db3610dae84610d60565b610d45565b905082815260208101848484011115610dcf57610dce610ccf565b5b610dda848285610d91565b509392505050565b600082601f830112610df757610df6610cca565b5b8135610e07848260208601610da0565b91505092915050565b60008060408385031215610e2757610e26610cc0565b5b600083013567ffffffffffffffff811115610e4557610e44610cc5565b5b610e5185828601610de2565b925050602083013567ffffffffffffffff811115610e7257610e71610cc5565b5b610e7e85828601610de2565b9150509250929050565b60008115159050919050565b610e9d81610e88565b82525050565b6000602082019050610eb86000830184610e94565b92915050565b600073ffffffffffffffffffffffffffffffffffffffff82169050919050565b6000610ee982610ebe565b9050919050565b610ef981610ede565b8114610f0457600080fd5b50565b600081359050610f1681610ef0565b92915050565b600060208284031215610f3257610f31610cc0565b5b6000610f4084828501610f07565b91505092915050565b6000610f5482610ebe565b9050919050565b610f6481610f49565b82525050565b6000602082019050610f7f6000830184610f5b565b92915050565b600060208284031215610f9b57610f9a610cc0565b5b600082013567ffffffffffffffff811115610fb957610fb8610cc5565b5b610fc584828501610de2565b91505092915050565b610fd781610c82565b8114610fe257600080fd5b50565b600081359050610ff481610fce565b92915050565b6000602082840312156110105761100f610cc0565b5b600061101e84828501610fe5565b91505092915050565b61103081610f49565b811461103b57600080fd5b50565b60008135905061104d81611027565b92915050565b60006020828403121561106957611068610cc0565b5b60006110778482850161103e565b91505092915050565b600081519050919050565b600082825260208201905092915050565b60005b838110156110ba57808201518184015260208101905061109f565b838111156110c9576000848401525b50505050565b60006110da82611080565b6110e4818561108b565b93506110f481856020860161109c565b6110fd81610cd4565b840191505092915050565b6000602082019050818103600083015261112281846110cf565b905092915050565b600082825260208201905092915050565b600061114682611080565b611150818561112a565b935061116081856020860161109c565b61116981610cd4565b840191505092915050565b61117d81610c82565b82525050565b600060408301600083015184820360008601526111a0828261113b565b91505060208301516111b56020860182611174565b508091505092915050565b600060208201905081810360008301526111da8184611183565b905092915050565b6000806000606084860312156111fb576111fa610cc0565b5b600084013567ffffffffffffffff81111561121957611218610cc5565b5b61122586828701610de2565b935050602084013567ffffffffffffffff81111561124657611245610cc5565b5b61125286828701610de2565b92505060406112638682870161103e565b9150509250925092565b600081905092915050565b600061128382611080565b61128d818561126d565b935061129d81856020860161109c565b80840191505092915050565b60006112b58284611278565b915081905092915050565b7f4e487b7100000000000000000000000000000000000000000000000000000000600052602260045260246000fd5b6000600282049050600182168061130757607f821691505b6020821081141561131b5761131a6112c0565b5b50919050565b60008190508160005260206000209050919050565b60008154611343816112ef565b61134d818661126d565b945060018216600081146113685760018114611379576113ac565b60ff198316865281860193506113ac565b61138285611321565b60005b838110156113a457815481890152600182019150602081019050611385565b838801955050505b50505092915050565b60006113c18284611336565b915081905092915050565b7f737570706c696572000000000000000000000000000000000000000000000000600082015250565b600061140260088361108b565b915061140d826113cc565b602082019050919050565b60006020820190508181036000830152611431816113f5565b9050919050565b7f7265676973746572656400000000000000000000000000000000000000000000600082015250565b600061146e600a8361108b565b915061147982611438565b602082019050919050565b6000602082019050818103600083015261149d81611461565b9050919050565b7f4e487b7100000000000000000000000000000000000000000000000000000000600052601160045260246000fd5b60006114de82610c82565b91506114e983610c82565b9250827fffffffffffffffffffffffffffffffffffffffffffffffffffffffffffffffff0382111561151e5761151d6114a4565b5b82820190509291505056fea26469706673582212206d5db7799a56fbe8c45ed5e2a3c51849ae946ab798abd3bad2bcb7cd43e6194d64736f6c63430008090033",
  "linkReferences": {},
  "deployedLinkReferences": {}
}